S014000054524B5F4B4541385F4C6162312E68657880
S11300000003002031090000C9080000C9080000ED
S113001000000000000000000000000000000000DC
S1130020000000000000000000000000C9080000FB
S11300300000000000000000C9080000C90800001A
S1130040C9080000C9080000C9080000C908000068
S1130050C9080000C9080000C9080000C908000058
S1130060C9080000C9080000C9080000C908000048
S1130070F10A0000C9080000C9080000C90800000E
S1130080C9080000C9080000C9080000C908000028
S1130090C9080000C9080000C9080000C908000018
S11300A0C9080000C9080000C9080000C908000008
S11300B0C9080000C9080000C9080000C9080000F8
S113080002B4714649084900095649008E4402BCA5
S11308107047C04602B4714649084900095C490062
S11308208E4402BC7047C046002934D00123002204
S113083010B488422CD301242407A14204D281425B
S113084002D209011B01F8E7E400A14204D281426B
S113085002D249005B00F8E7884201D3401A1A43E8
S11308604C08A04202D3001B5C0822438C08A0421F
S113087002D3001B9C082243CC08A04202D3001BD5
S1130880DC082243002803D01B0901D00909E3E74F
S1130890101C10BC7047002801D00020C04307B4CE
S11308A0024802A14018029003BDC046190000008E
S11308B00029F0D003B5FFF7B9FF0EBC4243891AF3
S11308C01847C0467047C04680B500AF00BEBD465D
S11308D080BDC04680B500AF074A0849084BD150D7
S11308E0084B094A9A80074B03225A70054B23226E
S11308F01A70BD4680BDC04600E000E00000000064
S1130900080D00000020054003E8FFFF80B500AF9C
S1130910054A064BD31A054A101C00211A1C00F084
S11309203FF9BD4680BDC04620FFFF1F00FFFF1FEB
S113093001F06EF9FFF7CEFFFFF7E8FF01F040F991
S113094001F0DCF801F072F9044B0020191C00F0EE
S11309500DF8031C181C00F007F9C04600FFFF1F28
S113096080B582B000AF7860FEE7C04680B582B043
S113097000AF00237B6000F0CDF800F049F8054B90
S1130980181C00F075F81C2000F014F87B68013383
S11309907B60FBE79909000080B582B000AF021CC0
S11309A0FB1D1A70FB1D1B78181C00F06DF8BD466A
S11309B002B080BD90B583B000AF021CFB1D1A705D
S11309C0FB1DFA1D1278103A1A70104A0F49C02301
S11309D05B00C958FB1D18781F2303400120041C29
S11309E09C40231C1943C0235B00D150074B074A8A
S11309F01168FA1D10781F2202400120041C944043
S1130A00221C0A431A60BD4603B090BD00E100E019
S1130A1080B500AF144B144AD268802149030A43BD
S1130A20DA60124B00221A70104B80225A700F4B5E
S1130A3000229A700D4B0D4AD278D2B208210A4393
S1130A40D2B2DA70094B094AD278D2B204210A43ED
S1130A50D2B2DA70054B054AD278D2B220210A43C9
S1130A60D2B2DA70BD4680BD0080044000A00640CA
S1130A7080B582B000AF7860024B7A681A60BD46D8
S1130A8002B080BD1CFFFF1F80B582B000AF021C06
S1130A90FB1D1A70C046084B1B79DBB2DBB25BB29C
S1130AA0002BF8DA044B1B79034BFA1D1278DA7128
S1130AB0BD4602B080BDC04600A0064080B582B0ED
S1130AC000AFC046094B1B79DBB21A1C202313402C
S1130AD0F8D0064B1B79054AFB1DD2791A70FB1D11
S1130AE01B78181CBD4602B080BDC04600A006405D
S1130AF098B500AF054B1B79054B1C68FFF7DEFF6B
S1130B00031C181CA047BD4698BDC04600A0064063
S1130B101CFFFF1F80B500AF124B124A1278D2B2ED
S1130B2002210A43D2B21A700E4B90229A70C04628
S1130B300C4B1B79DBB21A1C40231340F8D0094B31
S1130B40084A5278D2B220210A43D2B25A70054BD5
S1130B50044A1279D2B240210A43D2B21A71BD4674
S1130B6080BDC0460040064038B5051C01F042F87F
S1130B7000F0E8FF084C2368002B02D098470020BF
S1130B802060064C2168002902D088470022226098
S1130B90281CFFF7E5FE38BD04FFFF1F08FFFF1FF9
S1130BA010B5041C00F03EFF201C10BDF0B589B048
S1130BB001901F1C0EAB0391079202901A78081C37
S1130BC001990FAC01380026049225780670B142D1
S1130BD017D1119BB34214D1049B002B01D06F2D6C
S1130BE02FD0642D02D0692D00D0A8E0022F02D1AD
S1130BF0039802389FE0012F00D0A0E00398023848
S1130C0094E0692D0ED004D8582D16D0642D1CD133
S1130C1008E0752D04D0782D0FD06F2D15D110E07C
S1130C20002712E0019A002A0FDA80242606B24235
S1130C300DD051420191029109E000273E1C10247D
S1130C4007E000273E1C082403E0002600E00126FC
S1130C500A240090002006900298211CFFF728FE29
S1130C6002980591211CFFF7DFFD059A0290092ADD
S1130C7001D8303205E0059A3732782D01D1059A32
S1130C8057320098069B02990138D2B20090027044
S1130C900133002901D00693DEE7011C082C0BD197
S1130CA00498002808D0302A06D00B1C013B3022BF
S1130CB000931A70069B0233079802280FD1002E66
S1130CC001D1002F02D0109901391091109A11927C
S1130CD0102C04D10498002801D0023A11920399EF
S1130CE00098119A091A8918164A914226DC00992B
S1130CF0CA181199121A8A4203DA01383022027092
S1130D00F5E7102C0AD1049C002C07D0019B002B82
S1130D1004D0421E3021023815700170002E02D01A
S1130D2001382D2108E0012F02D101382B2103E0E5
S1130D30022F04D101382021017000E0002009B005
S1130D40F0BDC046FD010000F0B5B64C1E1CA54424
S1130D506B460A900B913E332021002019700892B3
S1130D600590089A1578002D00D1F9E108982521FD
S1130D7000F0ADFE0C90002811D1089800F0B6FEEA
S1130D800599021C08180590002A00D1E8E10B9887
S1130D9008990A9EB047002800D0E1E1CEE00C9FFC
S1130DA0089C05993A1B8B180593002A0CD10C98C2
S1130DB00C9A437801321D1E252D0CD000270121E9
S1130DC0BC460D97069119E00B9808990A9DA8470F
S1130DD00028ECD1B2E00C9A0021023201240892DE
S1130DE0079106943DE02B2B0BDC202B10D0232BFA
S1130DF000D0BAE001239C46013213782B2BF2D1A8
S1130E00ABE12D2B00D1A5E1302B00D0ADE004E007
S1130E100D9D012DF0D00220A0E1069C002CEBD00A
S1130E2002200690E8E737680436FB43D80F93782E
S1130E3002321C1C683C0021042C00D8C1E0DDB245
S1130E406E2B00D0C7E0013208926E2D00D149E12B
S1130E5000D900E1632D00D159E107D8252D00D038
S1130E60F3E010AC25700996012619E0642D00D03A
S1130E70EEE0321D09923068032900D0F6E00799AC
S1130E806646009601950291039790A9069A0D9BD8
S1130E90FFF78CFE041E00D13FE1634F6F443E1AFE
S1130EA0069800283CD02023022800D130236F4626
S1130EB03E373B7022782B2A04D02D2A02D0371CCF
S1130EC0202A0BD1371C302B08D10B98211C01226E
S1130ED00A9B9847002831D00134771E06990229CD
S1130EE00ED1612D01D0412D0AD1012F26DD0B98A1
S1130EF0211C02220A9DA84700281FD0023F023469
S1130F00351C079EB54209DA69460B983E31012229
S1130F100A9B9847002811D00135F2E73E1C00E0F7
S1130F20351C002E03D10698002819D115E0211C88
S1130F300B98321C0A9CA0470028F4D10122554288
S1130F4005950DE169463F3120240B9801220A9F43
S1130F500C70B8470028F1D00135079FBD42F1DB82
S1130F60059A53190593099EFBE6171C2A2B00D0FA
S1130F70E1E0341D36680796002E03DA734200253B
S1130F80079306957B780132261C284F0798B842B0
S1130F9000DDC2E02E2B11D153782A2B00D142E779
S1130FA0013200271C1C303C092C05D80A214F4370
S1130FB001323F191378F5E701203AE70027381C7E
S1130FC037E71B4D295D1B4D2C57002C00D136E70C
S1130FD05378013233E76E2B0ADC632B2CD002DC0E
S1130FE0582B30D115E0642B13D0692B2BD110E092
S1130FF0732B23D009DC6F2B0BD0702B23D101234F
S11310007825082703219C461DE7752B01D0782BF2
S113101019D1002815D0069C022C00D013E7012317
S1131020069310E7BCFDFFFF3F020000FD01000036
S1131030361C0000311C0000002804D1002902D114
S113104001E70127FFE6FF25FDE6582D65D116E0EF
S1131050692D62D10DE7732D23D002D86F2D5CD199
S11310600DE0752D0BD0782D57D108E0022901D160
S113107000B204E7012900D001E740B2FFE6341DC5
S113108009943068032906D0022901D180B202E014
S1131090012900D1C0B2079E6246009201950296D2
S11310A0F2E63468311D0991002C00D12F4C6346BF
S11310B0002B07D026780134002800D1F0E6BE4288
S11310C037DCEDE6002808D0201C61463A1C00F00D
S11310D0E8FC00282DD0061BE2E6201C00F006FDEB
S11310E0061CDDE6351D09953468022907D003295D
S11310F00AD0002900D036E70598206033E76F4610
S11311001421CB5B23802EE7059A22602BE73368FA
S1131110301D10AC09902370A6E60C9800F0E6FC94
S1131120059E021C35180595002819D00B980C99BA
S11311302FE63E1CB4E600240794191C3039092913
S113114000D922E7079D0A236B4301325818079000
S11311501378F2E7002706974EE601200D904BE640
S113116005989124A400A544F0BDC046301C00009D
S1131170F0B50027A9B0059006910F9309920D9739
S11311800B9708970A970C970497099D2C78002CC5
S113119000D103E3201C00F047FB002822D0099A69
S11311A001321078099200F03FFB0028F7D1002F9C
S11311B000D0F1E2002106980A1C059CA047061CF9
S11311C000F032FB002803D0049B01330493F1E7C1
S11311D0701C04D12E98002800D1DFE20127069864
S11311E0311CABE2252C1BD0002F19D1391C0698D9
S11311F03A1C059EB047C1B2A1420AD0069801220A
S1131200B0472E9F002F00D1C8E2099D01350995F2
S1131210C2E2049B09990133013104930991B4E7B3
S11312201EAC201C00212822FFF7BAFC0998A54E09
S113123045786660281E25280CD1211C14A8282274
S1131240E57000F03BFC099C0020023409940790EF
S11312500E90D7E02A2D02D0099C013405E0012329
S113126009992370099C88780234021C303A092AAF
S11312701FD800260A256E433038013436182078EA
S1131280031C303B092BF5D91EAD6E60002E0ED128
S113129001235942E97014A8291C2822013400F0C2
S11312A00DFC2B780994FF2507960E969DE00126E8
S11312B06E701EA9682804D06C280CD10320887095
S11312C007E0637802228A70682B02D101258D70B1
S11312D06419607801341EABD8705838202871D84E
S11312E0FFF798FA7270702B7070707070707015D0
S11312F07270707070727070707072721170701998
S113130070727070720003269E7078215BE09A7888
S1131310002A59D056E09978002901D0FF20D870CE
S113132000231EAAD518FF2601332E72202BF8D1D4
S1131330C121FE205172107346E09D78002D01D02A
S1131340FF26DE7063785E2B02D00134002102E0B8
S1131350A378012102345D2B07D11EAB2020D87461
S11313606378013401E0E3780334002B00D139E2DF
S11313705D2B00D139E2DDB2EA081EAE0720B218B7
S1131380184001258540107A2E1C65780643167294
S11313902D2D14D1A278002A11D05D2A0FD001334B
S11313A09342E0DCDEB2F0081EAD281807251D408C
S11313B00126AE40351C067A35430572EFE7013449
S11313C02B1CD2E7FF21D9701EAE311C282214A891
S11313D000F074FB6A467A327178107833780E9193
S11313E00790F578013476680994002B06D1252DF1
S11313F008D00F9A146804320F9200E000246E2D76
S113140001D1ADE10024002F01D001270AE00698A4
S1131410391C0222059B9847002803D02E9F002FD9
S1131420F3D1BBE1692D25D012D85B2D00D115E194
S113143006D8252D00D1D3E0582D00D0AEE13EE0F2
S1131440632D00D17CE0642D00D0A7E10A2012E0D6
S1131450732D00D1E6E007D86E2D00D180E16F2D09
S113146000D09BE1082030E0752D2DD0782D00D0E0
S113147094E124E00020002F48D112A913AA11AD51
S113148001910292311C0095059A069B00F0E3F944
S1131490119E002E05D12E98002828D101240B94EA
S11314A07CE1049B129D9E190496002D05D0802199
S11314B00A06904201D043422AE0031C28E010208F
S11314C003E0C046FFFFFF7F0A20002F1ED111ABAF
S11314D013A912AD00930291069B311C0195059A44
S11314E000F0B9F9119E031C002E03D1D3E70127A4
S11314F0331C0DE0049A129D90190490002D07D01E
S113150080210E06B34203D05B4201E00127002391
S1131510002C11D0079E032E09D8301CFFF77AF94E
S113152006020406237002E0238000E023600C9D81
S1131530794279416A180C920A9801300A906EE057
S11315400E98002800D10126002C33D000211191DF
S1131550A6198F4200D01FE1B44219D02E9A002A56
S113156004D01198002811DA01230D930021069864
S11315700A1C059DA8470890013009D008AB1D78C6
S113158025701199013401311191E5E700240D947E
S1131590119E2E9A002E00D1A0E0002A03D00D99AE
S11315A0002900D1F8E0049A0C9C901901340490AD
S11315B00C94D1E01194013E701C0CD000210698CB
S11315C00A1C059B9847013E0890013003D0119DE9
S11315D001351195F0E7119E002E00D0BCE0DDE04E
S11315E0002F00D0D5E0002106980A1C059EB047C4
S11315F0051C00F019F9002803D0049C013404945C
S1131600F1E7252D08D001220698291CB0472E9A0F
S1131610002A00D142E7BCE004990131049101247D
S11316200B94B2E501230B93002F17D10698391CB4
S11316303A1C059DA847051C00F0F6F8002806D0C2
S1131640049B00210133049306980A1CF1E701224C
S11316500698291C059B984701220B92002C49D01F
S1131660002111918F4200D096E0013E351C711C7F
S113167024D02E9A002A04D0119B002B1CDC0120BC
S11316800D90002106980A1C059B9847089001308C
S113169014D008A90B7814A8DA088218089807212E
S11316A00140127A01208840104207D02370119D16
S11316B0013401351195D8E700260D96119B08AE2B
S11316C03178002B05D02E9800280AD00D9A002AD4
S11316D007D101220698059FB8472E9A002A5DD0AB
S11316E05AE00020049E20700C9CF31801340493EB
S11316F00C942BE01194013E351C711C19D000216F
S113170006980A1C059CA0470890013011D008A82F
S1131710017814AACB080898D418072303400121A0
S1131720247A9940013E214203D0119D013511953F
S1131730E2E7119E002E05D1069808990122059B27
S1131740984722E5049B089998190490002D03DB1F
S113175006980122059DA8470A9901310A9114E5CA
S1131760002C00D111E5079A032A00D90DE5101CBD
S1131770FFF750F8070A02076D4610214A5B2280E2
S113178003E50498206000E568461026335C237066
S1131790FBE401270B97F8E40127F6E400210698FF
S11317A00222059DA8470A99002805D0002928D1BE
S11317B0012670420C9024E0002922D10B9A002AC1
S11317C01FD00A9906980A1C059FB8470A99041C59
S11317D002220698B8470028EAD10698211C012263
S11317E0B8470EE0FF211EABEDE5002900D1EBE583
S11317F020AD2A7828A8D6432E7001358542F8D129
S1131800E2E50C9829B0F0BD8022031C00B500204D
S113181051008B4204D803480122C3185878104061
S113182000BDC0463B1C00008022031C00B5002004
S113183051008B4204D803481022C3185878104032
S113184000BDC0463B1C0000031C613B00B5192BC6
S113185000D8203800BDF0B587B0059101930D99EB
S11318600E9B009200220A60071C1A60904216DB4D
S1131870012814D0242812DC0598904207DD009C2E
S11318800198111CA0470126041C351C02E0141CFD
S1131890161C402500220392974209D002E0141C32
S11318A0161C402501214842391CFEF7BDFF039058
S11318B00023029304930598864200DD9EE0621C97
S11318C000D19BE06022154200D097E0681E0F28EB
S11318D0F1D8FEF795FF082EF03FF0F0F052F0F04B
S11318E0F0F0F0F0F052201CFFF79EFF021E09D02A
S11318F00021009C01980A1CA047041C0498013094
S11319000490D8E72B2C07D1009D0198111CA847FF
S11319100136041C0225CEE702252D2CCBD1111C47
S11319200198009B98470D9901220136041C0A6016
S1131930C1E7002F02D00825102FBCD10825302C78
S1131940B9D10021009C01980A1CA0470136041C4F
S11319500425B0E7582C01D0782C09D10021019836
S11319600A1C009B98470136041C08251027A2E78F
S11319701025002F9FD108279DE7002F00D10A27AB
S11319800398002805D101225042391CFEF74CFF70
S11319900390201C3038092802D8B84211DB0BE030
S11319A0201CFFF731FF002806D0201CFFF74CFF56
S11319B0011C3639B94203DD102D1DD120257AE7EB
S11319C03738029D039C0123A54201D80E9B1B6856
S11319D0029AC5B27A43D1438D4200D901230E9CA9
S11319E08018002123600290009D01980A1CA847DA
S11319F00136041C10255EE740255CE734273D4092
S1131A0003D10C9B02951D6004E0049D013E0C99DA
S1131A1076190E60211C01980122009CA0470298AF
S1131A2007B0F0BD30B5C9B2031C1F2A31D94442F6
S1131A300323234005D0D21AC51801700130A842EF
S1131A40FBD1002905D00D060C042C430B022143C5
S1131A5019435409031C002C0ED0251C013D1960A8
S1131A6059609960D960196159619961D9612033CC
S1131A70002DF3D16301C318D006400F07D0041C16
S1131A801D1C013C02C5002CFBD180001B18032443
S1131A9022409D18002A03D019700133AB42FBD1B8
S1131AA030BD00B5C9B28218904205D00378013028
S1131AB08B42F9D1013800E0002000BD10B50023AD
S1131AC0934203D0CC5CC4540133F9E710BD00B594
S1131AD0C9B20378421C002B03D08B4205D0101CE2
S1131AE0F7E74B4259414942084000BD00B5431E47
S1131AF001331A78002AFBD1181A00BD10B50B4C1B
S1131B000B4B9C4202D001CC8047F9E7094C0A48B0
S1131B10844202D008CC9847F9E7084C08498C4223
S1131B2002D004CC9047F9E710BDC0463C1D00002C
S1131B303C1D00003C1D00003C1D00003C1D00003D
S1131B403C1D000010B5084C084B9C4202D004CC4C
S1131B509047F9E7064C0748844203D0043C2168C7
S1131B608847F8E710BDC0463C1D00003C1D00003E
S1131B703C1D00003C1D000000B588421FD0002A17
S1131B801DD00323194207D1184205D19A4203D923
S1131B9008C9043A08C0F2E70123194209D11842DE
S1131BA007D19A4205D90B88023A038002310230E8
S1131BB0E5E70B78013A037001310130DFE700BD3E
S1131BC038B50B4D002D11D000242B1919680029AC
S1131BD006D02B1958689A68FFF7CEFF0C34F4E747
S1131BE05A68002AF5D198680028F2D138BDC04659
S1131BF03C1D0000054B10B51C68002C04D0A068E7
S1131C00616888472468F8E710BDC04618FFFF1FC5
S1131C10054B181C002805D0854681B00020C04320
S1131C20009001B0F746704700030020F746704764
S1131C300001000000010200000003008080808099
S1131C408080808080909090909080808080808040
S1131C50808080808080808080808080180404045C
S1131C600404040404040404040404040202020238
S1131C70020202020202040404040404044343436F
S1131C80434343414141414141414141414141413A
S1131C9041414141414141040404040404232323F8
S1131CA0232323212121212121212121212121211A
S1131CB021212121212121040404048000000000A9
S1131CC00000000000000000000000000000000010
S1131CD00000000000000000000000000000000000
S1131CE000000000000000000000000000000000F0
S1131CF000000000000000000000000000000000E0
S1131D0000000000000000000000000000000000CF
S1131D1000000000000000000000000000000000BF
S1131D2000000000000000000000000000000000AF
S10F1D30000000000000000000000000A3
S1131D3C3C1D000000FFFF1F00000000000000001D
S10B1D4C00000000000000008B
S9030931C2
